{
  "contractName": "RegisterImages",
  "abi": [
    {
      "anonymous": false,
      "inputs": [
        {
          "indexed": true,
          "internalType": "address",
          "name": "_owner",
          "type": "address"
        },
        {
          "indexed": false,
          "internalType": "string",
          "name": "_ipfsHashR",
          "type": "string"
        },
        {
          "indexed": false,
          "internalType": "string",
          "name": "_ipfsHashG",
          "type": "string"
        },
        {
          "indexed": false,
          "internalType": "string",
          "name": "_ipfsHashB",
          "type": "string"
        },
        {
          "indexed": false,
          "internalType": "string",
          "name": "_title",
          "type": "string"
        },
        {
          "indexed": false,
          "internalType": "string",
          "name": "_description",
          "type": "string"
        },
        {
          "indexed": false,
          "internalType": "uint256",
          "name": "_uploadedOn",
          "type": "uint256"
        }
      ],
      "name": "LogImageUploaded",
      "type": "event"
    },
    {
      "payable": false,
      "stateMutability": "nonpayable",
      "type": "fallback"
    },
    {
      "constant": true,
      "inputs": [
        {
          "internalType": "address",
          "name": "",
          "type": "address"
        },
        {
          "internalType": "uint256",
          "name": "",
          "type": "uint256"
        }
      ],
      "name": "ownerToImages",
      "outputs": [
        {
          "internalType": "string",
          "name": "ipfsHashR",
          "type": "string"
        },
        {
          "internalType": "string",
          "name": "ipfsHashG",
          "type": "string"
        },
        {
          "internalType": "string",
          "name": "ipfsHashB",
          "type": "string"
        },
        {
          "internalType": "string",
          "name": "title",
          "type": "string"
        },
        {
          "internalType": "string",
          "name": "desc",
          "type": "string"
        },
        {
          "internalType": "uint256",
          "name": "uploadedOn",
          "type": "uint256"
        },
        {
          "internalType": "string",
          "name": "key1",
          "type": "string"
        },
        {
          "internalType": "string",
          "name": "key2",
          "type": "string"
        }
      ],
      "payable": false,
      "stateMutability": "view",
      "type": "function"
    },
    {
      "constant": false,
      "inputs": [
        {
          "internalType": "string",
          "name": "_ipfsHashR",
          "type": "string"
        },
        {
          "internalType": "string",
          "name": "_ipfsHashG",
          "type": "string"
        },
        {
          "internalType": "string",
          "name": "_ipfsHashB",
          "type": "string"
        },
        {
          "internalType": "string",
          "name": "_title",
          "type": "string"
        },
        {
          "internalType": "string",
          "name": "_desc",
          "type": "string"
        },
        {
          "internalType": "string",
          "name": "_key1",
          "type": "string"
        },
        {
          "internalType": "string",
          "name": "_key2",
          "type": "string"
        }
      ],
      "name": "uploadImage",
      "outputs": [
        {
          "internalType": "bool",
          "name": "_success",
          "type": "bool"
        }
      ],
      "payable": true,
      "stateMutability": "payable",
      "type": "function"
    },
    {
      "constant": true,
      "inputs": [],
      "name": "getImageCount",
      "outputs": [
        {
          "internalType": "uint256",
          "name": "",
          "type": "uint256"
        }
      ],
      "payable": false,
      "stateMutability": "view",
      "type": "function"
    },
    {
      "constant": true,
      "inputs": [
        {
          "internalType": "uint8",
          "name": "_index",
          "type": "uint8"
        }
      ],
      "name": "getImage",
      "outputs": [
        {
          "components": [
            {
              "internalType": "string",
              "name": "ipfsHashR",
              "type": "string"
            },
            {
              "internalType": "string",
              "name": "ipfsHashG",
              "type": "string"
            },
            {
              "internalType": "string",
              "name": "ipfsHashB",
              "type": "string"
            },
            {
              "internalType": "string",
              "name": "title",
              "type": "string"
            },
            {
              "internalType": "string",
              "name": "desc",
              "type": "string"
            },
            {
              "internalType": "uint256",
              "name": "uploadedOn",
              "type": "uint256"
            },
            {
              "internalType": "string",
              "name": "key1",
              "type": "string"
            },
            {
              "internalType": "string",
              "name": "key2",
              "type": "string"
            }
          ],
          "internalType": "struct RegisterImages.Image",
          "name": "_image",
          "type": "tuple"
        }
      ],
      "payable": false,
      "stateMutability": "view",
      "type": "function"
    }
  ],
  "bytecode": "0x608060405234801561001057600080fd5b506111fa806100206000396000f3fe60806040526004361061003f5760003560e01c80631e3db5fe1461004e57806350e25c7214610084578063bb0e52d3146100b8578063f97c44a9146100d8575b34801561004b57600080fd5b50005b34801561005a57600080fd5b5061006e610069366004610e2f565b6100fa565b60405161007b91906110a4565b60405180910390f35b34801561009057600080fd5b506100a461009f366004610cb2565b61057c565b60405161007b989796959493929190610fff565b6100cb6100c6366004610cec565b6109af565b60405161007b9190610f76565b3480156100e457600080fd5b506100ed610b46565b60405161007b91906110bc565b610102610b5a565b60ff8260ff16111561011357600080fd5b61011b610b5a565b336000908152602081905260409020805460ff851690811061013957fe5b60009182526020918290206040805160089390930290910180546002610100600183161581026000190190921604601f810186900490950284016101209081019093528301848152929390928492909184918401828280156101dc5780601f106101b1576101008083540402835291602001916101dc565b820191906000526020600020905b8154815290600101906020018083116101bf57829003601f168201915b50505050508152602001600182018054600181600116156101000203166002900480601f01602080910402602001604051908101604052809291908181526020018280546001816001161561010002031660029004801561027e5780601f106102535761010080835404028352916020019161027e565b820191906000526020600020905b81548152906001019060200180831161026157829003601f168201915b5050509183525050600282810180546040805160206001841615610100026000190190931694909404601f810183900483028501830190915280845293810193908301828280156103105780601f106102e557610100808354040283529160200191610310565b820191906000526020600020905b8154815290600101906020018083116102f357829003601f168201915b505050918352505060038201805460408051602060026001851615610100026000190190941693909304601f81018490048402820184019092528181529382019392918301828280156103a45780601f10610379576101008083540402835291602001916103a4565b820191906000526020600020905b81548152906001019060200180831161038757829003601f168201915b505050918352505060048201805460408051602060026001851615610100026000190190941693909304601f81018490048402820184019092528181529382019392918301828280156104385780601f1061040d57610100808354040283529160200191610438565b820191906000526020600020905b81548152906001019060200180831161041b57829003601f168201915b5050509183525050600582015460208083019190915260068301805460408051601f600260001961010060018716150201909416939093049283018590048502810185018252828152940193928301828280156104d65780601f106104ab576101008083540402835291602001916104d6565b820191906000526020600020905b8154815290600101906020018083116104b957829003601f168201915b505050918352505060078201805460408051602060026001851615610100026000190190941693909304601f810184900484028201840190925281815293820193929183018282801561056a5780601f1061053f5761010080835404028352916020019161056a565b820191906000526020600020905b81548152906001019060200180831161054d57829003601f168201915b50505091909252509195945050505050565b6000602052816000526040600020818154811061059557fe5b60009182526020918290206008919091020180546040805160026001841615610100026000190190931692909204601f81018590048502830185019091528082529194509250839183018282801561062e5780601f106106035761010080835404028352916020019161062e565b820191906000526020600020905b81548152906001019060200180831161061157829003601f168201915b505050505090806001018054600181600116156101000203166002900480601f0160208091040260200160405190810160405280929190818152602001828054600181600116156101000203166002900480156106cc5780601f106106a1576101008083540402835291602001916106cc565b820191906000526020600020905b8154815290600101906020018083116106af57829003601f168201915b50505060028085018054604080516020601f600019610100600187161502019094169590950492830185900485028101850190915281815295969594509092509083018282801561075e5780601f106107335761010080835404028352916020019161075e565b820191906000526020600020905b81548152906001019060200180831161074157829003601f168201915b5050505060038301805460408051602060026001851615610100026000190190941693909304601f81018490048402820184019092528181529495949350908301828280156107ee5780601f106107c3576101008083540402835291602001916107ee565b820191906000526020600020905b8154815290600101906020018083116107d157829003601f168201915b5050505060048301805460408051602060026001851615610100026000190190941693909304601f810184900484028201840190925281815294959493509083018282801561087e5780601f106108535761010080835404028352916020019161087e565b820191906000526020600020905b81548152906001019060200180831161086157829003601f168201915b50505050600583015460068401805460408051602060026001851615610100026000190190941693909304601f810184900484028201840190925281815295969395939450908301828280156109155780601f106108ea57610100808354040283529160200191610915565b820191906000526020600020905b8154815290600101906020018083116108f857829003601f168201915b5050505060078301805460408051602060026001851615610100026000190190941693909304601f81018490048402820184019092528181529495949350908301828280156109a55780601f1061097a576101008083540402835291602001916109a5565b820191906000526020600020905b81548152906001019060200180831161098857829003601f168201915b5050505050905088565b6000426109ba610b5a565b5060408051610100810182528a815260208082018b90528183018a9052606082018990526080820188905260a0820184905260c0820187905260e082018690523360009081528082529283208054600181018083559185529382902083518051949592948694600890940290920192610a3892849290910190610b9f565b506020828101518051610a519260018501920190610b9f565b5060408201518051610a6d916002840191602090910190610b9f565b5060608201518051610a89916003840191602090910190610b9f565b5060808201518051610aa5916004840191602090910190610b9f565b5060a0820151600582015560c08201518051610acb916006840191602090910190610b9f565b5060e08201518051610ae7916007840191602090910190610b9f565b50505050336001600160a01b03167fbf678b2e6c85012aa1894ab86f65deb86d76cf320dc0312c4ce36745da04593a8b8b8b8b8b88604051610b2e96959493929190610f84565b60405180910390a25060019998505050505050505050565b336000908152602081905260409020545b90565b60405180610100016040528060608152602001606081526020016060815260200160608152602001606081526020016000815260200160608152602001606081525090565b828054600181600116156101000203166002900490600052602060002090601f016020900481019282601f10610be057805160ff1916838001178555610c0d565b82800160010185558215610c0d579182015b82811115610c0d578251825591602001919060010190610bf2565b50610c19929150610c1d565b5090565b610b5791905b80821115610c195760008155600101610c23565b8035610c428161118e565b92915050565b600082601f830112610c5957600080fd5b8135610c6c610c67826110f1565b6110ca565b91508082526020830160208301858383011115610c8857600080fd5b610c93838284611148565b50505092915050565b8035610c42816111a5565b8035610c42816111ae565b60008060408385031215610cc557600080fd5b6000610cd18585610c37565b9250506020610ce285828601610c9c565b9150509250929050565b600080600080600080600060e0888a031215610d0757600080fd5b873567ffffffffffffffff811115610d1e57600080fd5b610d2a8a828b01610c48565b975050602088013567ffffffffffffffff811115610d4757600080fd5b610d538a828b01610c48565b965050604088013567ffffffffffffffff811115610d7057600080fd5b610d7c8a828b01610c48565b955050606088013567ffffffffffffffff811115610d9957600080fd5b610da58a828b01610c48565b945050608088013567ffffffffffffffff811115610dc257600080fd5b610dce8a828b01610c48565b93505060a088013567ffffffffffffffff811115610deb57600080fd5b610df78a828b01610c48565b92505060c088013567ffffffffffffffff811115610e1457600080fd5b610e208a828b01610c48565b91505092959891949750929550565b600060208284031215610e4157600080fd5b6000610e4d8484610ca7565b949350505050565b610e5e81611131565b82525050565b6000610e6f82611119565b610e79818561111d565b9350610e89818560208601611154565b610e9281611184565b9093019392505050565b805161010080845260009190840190610eb58282610e64565b91505060208301518482036020860152610ecf8282610e64565b91505060408301518482036040860152610ee98282610e64565b91505060608301518482036060860152610f038282610e64565b91505060808301518482036080860152610f1d8282610e64565b91505060a0830151610f3260a0860182610f6d565b5060c083015184820360c0860152610f4a8282610e64565b91505060e083015184820360e0860152610f648282610e64565b95945050505050565b610e5e81610b57565b60208101610c428284610e55565b60c08082528101610f958189610e64565b90508181036020830152610fa98188610e64565b90508181036040830152610fbd8187610e64565b90508181036060830152610fd18186610e64565b90508181036080830152610fe58185610e64565b9050610ff460a0830184610f6d565b979650505050505050565b6101008082528101611011818b610e64565b90508181036020830152611025818a610e64565b905081810360408301526110398189610e64565b9050818103606083015261104d8188610e64565b905081810360808301526110618187610e64565b905061107060a0830186610f6d565b81810360c08301526110828185610e64565b905081810360e08301526110968184610e64565b9a9950505050505050505050565b602080825281016110b58184610e9c565b9392505050565b60208101610c428284610f6d565b60405181810167ffffffffffffffff811182821017156110e957600080fd5b604052919050565b600067ffffffffffffffff82111561110857600080fd5b506020601f91909101601f19160190565b5190565b90815260200190565b6000610c4282611136565b151590565b6001600160a01b031690565b60ff1690565b82818337506000910152565b60005b8381101561116f578181015183820152602001611157565b8381111561117e576000848401525b50505050565b601f01601f191690565b61119781611126565b81146111a257600080fd5b50565b61119781610b57565b6111978161114256fea365627a7a7231582012105ccc1d0a92a1153037cc34b2088a40b3cfd1534619474c81dd38706d70bd6c6578706572696d656e74616cf564736f6c63430005100040",
  "source": "pragma experimental ABIEncoderV2;\r\n\r\ncontract RegisterImages {\r\n    // Struct to store Image data\r\n    struct Image {\r\n        string ipfsHashR;\r\n        string ipfsHashG;\r\n        string ipfsHashB;\r\n        string title;\r\n        string desc;\r\n        uint256 uploadedOn;\r\n        string key1;\r\n        string key2;\r\n    }\r\n\r\n    // Mapping to store the image ansd their owner\r\n    mapping(address => Image[]) public ownerToImages;\r\n\r\n    event LogImageUploaded(\r\n        address indexed _owner,\r\n        string _ipfsHashR,\r\n        string _ipfsHashG,\r\n        string _ipfsHashB,\r\n        string _title,\r\n        string _description,\r\n        uint256 _uploadedOn\r\n    );\r\n\r\n    // Fallback function\r\n    function() external {}\r\n\r\n    function uploadImage(\r\n        string memory _ipfsHashR,\r\n        string memory _ipfsHashG,\r\n        string memory _ipfsHashB,\r\n        string memory _title,\r\n        string memory _desc,\r\n        string memory _key1,\r\n        string memory _key2\r\n    ) public payable returns (bool _success) {\r\n        uint256 _uploadedOn = block.timestamp;\r\n        Image memory image = Image(\r\n            _ipfsHashR,\r\n            _ipfsHashG,\r\n            _ipfsHashB,\r\n            _title,\r\n            _desc,\r\n            _uploadedOn,\r\n            _key1,\r\n            _key2\r\n        );\r\n        ownerToImages[msg.sender].push(image);\r\n\r\n        emit LogImageUploaded(\r\n            msg.sender,\r\n            _ipfsHashR,\r\n            _ipfsHashG,\r\n            _ipfsHashB,\r\n            _title,\r\n            _desc,\r\n            _uploadedOn\r\n        );\r\n        _success = true;\r\n    }\r\n\r\n    function getImageCount() public view returns (uint256) {\r\n        return ownerToImages[msg.sender].length;\r\n    }\r\n\r\n    function getImage(uint8 _index) public view returns (Image memory _image) {\r\n        require(_index >= 0 && _index <= 2**8 - 1);\r\n        Image memory image = ownerToImages[msg.sender][_index];\r\n        return (image);\r\n    }\r\n}\r\n\r\n// Events need to be created\r\n",
  "sourcePath": "E:\\Reactjs files\\CIP\\Image-Copyright-Protection-using-Zero-watermark-algorithm-and-Blockchain\\contracts\\RegisterImages.sol",
  "compiler": {
    "name": "solc",
    "version": "0.5.16+commit.9c3226ce.Emscripten.clang"
  },
  "schemaVersion": "3.4.7",
  "updatedAt": "2022-06-09T15:00:03.113Z",
  "networkType": "ethereum",
  "devdoc": {
    "methods": {}
  },
  "userdoc": {
    "methods": {}
  }
}